:020000040800F2
:10000000008001203D1900087917000881170008B9
:1000100089170008911700089917000800000000D0
:10002000000000000000000000000000A117000810
:10003000AF17000800000000BD170008CB1700082C
:100040008D1900088D1900088D1900088D190008F8
:100050008D1900088D1900088D1900088D190008E8
:100060008D1900088D1900088D1900088D190008D8
:100070008D1900088D1900088D1900088D190008C8
:100080008D1900088D1900088D1900088D190008B8
:100090008D1900088D1900088D1900088D190008A8
:1000A0008D1900088D1900088D1900088D19000898
:1000B0008D1900088D1900088D1900088D19000888
:1000C0008D1900088D1900088D1900088D19000878
:1000D0008D1900088D1900088D1900088D19000868
:1000E000D71700088D1900088D1900088D19000810
:1000F0008D1900088D1900088D1900088D19000848
:100100008D1900088D1900088D1900088D19000837
:100110008D1900088D1900088D1900088D19000827
:100120008D1900088D1900088D1900088D19000817
:100130008D1900088D1900088D1900088D19000807
:100140008D1900088D1900088D1900088D190008F7
:100150008D1900088D1900088D1900088D190008E7
:100160008D1900088D1900088D1900088D190008D7
:100170008D1900088D190008000000000000000023
:080180008D1900088D1900081B
:1001900010B5054C237833B9044B13B10448AFF3C1
:1001A00000800123237010BDD40100200000000056
:1001B00020AB000808B5034B1BB103490348AFF35C
:1001C000008008BD00000000D801002020AB00081E
:1001D00001F0FF01102A2BDB10F0070F08D010F8F8
:1001E000013B013A8B422DD010F0070F42B3F6D1FC
:1001F000F0B441EA012141EA014122F007047FF015
:1002000000070023F0E80256083C85EA010586EA6B
:10021000010685FA47F5A3FA87F586FA47F6A5FAA7
:1002200087F68EB9EED1F0BC01F0FF0102F00702B3
:1002300032B110F8013B013A83EA010313B1F8D15E
:100240000020704701387047002D06BF354603383F
:10025000073815F0010F07D1013015F4807F02BF78
:10026000013015F4C03F0130F0BC0138704700BFC9
:10027000034613F8012B002AFBD1181A01387047E6
:1002800081F0004102E000BF83F0004330B54FEA47
:1002900041044FEA430594EA050F08BF90EA020FB4
:1002A0001FBF54EA000C55EA020C7FEA645C7FEA47
:1002B000655C00F0E2804FEA5454D4EB5555B8BF6A
:1002C0006D420CDD2C4480EA020281EA030382EADB
:1002D000000083EA010180EA020281EA0303362D6D
:1002E00088BF30BD11F0004F4FEA01314FF4801C40
:1002F0004CEA113102D0404261EB410113F0004F52
:100300004FEA03334CEA133302D0524263EB430308
:1003100094EA050F00F0A780A4F10104D5F1200EA6
:100320000DDB02FA0EFC22FA05F2801841F1000101
:1003300003FA0EF2801843FA05F359410EE0A5F1D5
:1003400020050EF1200E012A03FA0EFC28BF4CF006
:10035000020C43FA05F3C01851EBE37101F00045BC
:1003600007D54FF0000EDCF1000C7EEB00006EEBC9
:100370000101B1F5801F1BD3B1F5001F0CD3490853
:100380005FEA30004FEA3C0C04F101044FEA4452AA
:1003900012F5800F80F09A80BCF1004F08BF5FEA31
:1003A000500C50F1000041EB045141EA050130BD11
:1003B0005FEA4C0C404141EB0101013C28BFB1F523
:1003C000801FE9D291F0000F04BF01460020B1FA6E
:1003D00081F308BF2033A3F10B03B3F120020CDA41
:1003E0000C3208DD02F1140CC2F10C0201FA0CF01F
:1003F00021FA02F10CE002F11402D8BFC2F1200C84
:1004000001FA02F120FA0CFCDCBF41EA0C01904039
:10041000E41AA2BF01EB0451294330BD6FEA040482
:100420001F3C1CDA0C340EDC04F11404C4F120026D
:1004300020FA04F001FA02F340EA030021FA04F37F
:1004400045EA030130BDC4F10C04C4F1200220FAD6
:1004500002F001FA04F340EA0300294630BD21FA14
:1004600004F0294630BD94F0000F83F4801306BFDA
:1004700081F480110134013D4EE77FEA645C18BFCE
:100480007FEA655C29D094EA050F08BF90EA020F65
:1004900005D054EA000C04BF1946104630BD91EA5D
:1004A000030F1EBF0021002030BD5FEA545C05D160
:1004B0004000494128BF41F0004130BD14F580049F
:1004C0003CBF01F5801130BD01F0004545F0FE4113
:1004D00041F470014FF0000030BD7FEA645C1ABF48
:1004E000194610467FEA655C1CBF0B46024650EA7F
:1004F000013406BF52EA033591EA030F41F40021AB
:1005000030BD00BF90F0000F04BF0021704730B530
:100510004FF4806404F132044FF000054FF0000105
:1005200050E700BF90F0000F04BF0021704730B5C6
:100530004FF4806404F1320410F0004548BF40429B
:100540004FF000013EE700BF42004FEAE2014FEAF0
:1005500031014FEA02701FBF12F07F4393F07F4FCB
:1005600081F06051704732F07F4208BF704793F0CE
:100570007F4F04BF41F40021704730B54FF46074E1
:1005800001F0004521F000411CE700BF50EA0102E4
:1005900008BF704730B54FF000050AE050EA01028D
:1005A00008BF704730B511F0004502D5404261EBFD
:1005B00041014FF4806404F132045FEA915C3FF43E
:1005C000D8AE4FF003025FEADC0C18BF03325FEADB
:1005D000DC0C18BF033202EBDC02C2F1200300FA8C
:1005E00003FC20FA02F001FA03FE40EA0E0021FAB1
:1005F00002F11444BDE600BF70B54FF0FF0C4CF49F
:10060000E06C1CEA11541DBF1CEA135594EA0C0F50
:1006100095EA0C0F00F0DEF82C4481EA030621EA8B
:100620004C5123EA4C5350EA013518BF52EA0335C6
:1006300041F4801143F4801338D0A0FB02CE4FF078
:100640000005E1FB02E506F00042E0FB03E54FF0A8
:100650000006E1FB03569CF0000F18BF4EF0010EA0
:10066000A4F1FF04B6F5007F64F5407404D25FEA9C
:100670004E0E6D4146EB060642EAC62141EA55514F
:100680004FEAC52040EA5E504FEACE2EB4F1FD0C91
:1006900088BFBCF5E06F1ED8BEF1004F08BF5FEA0F
:1006A000500E50F1000041EB045170BD06F00046C1
:1006B00046EA010140EA020081EA0301B4EB5C046E
:1006C000C2BFD4EB0C0541EA045170BD41F4801166
:1006D0004FF0000E013C00F3AB8014F1360FDEBF8B
:1006E000002001F0004170BDC4F10004203C35DA67
:1006F0000C341BDC04F11404C4F1200500FA05F3EA
:1007000020FA04F001FA05F240EA020001F000428A
:1007100021F0004110EBD37021FA04F642EB060100
:100720005EEA430E08BF20EAD37070BDC4F10C042A
:10073000C4F1200500FA04F320FA05F001FA04F2EE
:1007400040EA020001F0004110EBD37041F10001DA
:100750005EEA430E08BF20EAD37070BDC4F12005E5
:1007600000FA05F24EEA020E20FA04F301FA05F24D
:1007700043EA020321FA04F001F0004121FA04F2F5
:1007800020EA020000EBD3705EEA430E08BF20EAC5
:10079000D37070BD94F0000F0FD101F000464000FF
:1007A00041EB010111F4801F08BF013CF7D041EA81
:1007B000060195F0000F18BF704703F00046520085
:1007C00043EB030313F4801F08BF013DF7D043EA56
:1007D0000603704794EA0C0F0CEA135518BF95EA0C
:1007E0000C0F0CD050EA410618BF52EA4306D1D193
:1007F00081EA030101F000414FF0000070BD50EAB2
:10080000410606BF1046194652EA430619D094EA3B
:100810000C0F02D150EA013613D195EA0C0F05D125
:1008200052EA03361CBF104619460AD181EA030179
:1008300001F0004141F0FE4141F470014FF0000031
:1008400070BD41F0FE4141F4780170BD70B54FF0CC
:10085000FF0C4CF4E06C1CEA11541DBF1CEA13554C
:1008600094EA0C0F95EA0C0F00F0A7F8A4EB05042E
:1008700081EA030E52EA03354FEA013100F0888025
:100880004FEA03334FF0805545EA131343EA1263EE
:100890004FEA022245EA111545EA10654FEA0026A3
:1008A0000EF000419D4208BF964244F1FD0404F55C
:1008B000407402D25B084FEA3202B61A65EB0305B8
:1008C0005B084FEA32024FF480104FF4002CB6EB75
:1008D000020E75EB030E22BFB61A754640EA0C00F5
:1008E0005B084FEA3202B6EB020E75EB030E22BF35
:1008F000B61A754640EA5C005B084FEA3202B6EB76
:10090000020E75EB030E22BFB61A754640EA9C0034
:100910005B084FEA3202B6EB020E75EB030E22BF04
:10092000B61A754640EADC0055EA060E18D04FEAC2
:10093000051545EA16754FEA06164FEAC30343EA62
:1009400052734FEAC2025FEA1C1CC0D111F4801F2F
:100950000BD141EA00014FF000004FF0004CB6E728
:1009600011F4801F04BF01430020B4F1FD0C88BFC7
:10097000BCF5E06F3FF6AFAEB5EB030C04BFB6EBD2
:10098000020C5FEA500C50F1000041EB045170BDC5
:100990000EF0004E4EEA113114EB5C04C2BFD4EBF2
:1009A0000C0541EA045170BD41F480114FF0000E76
:1009B000013C90E645EA060E8DE60CEA135594EAF2
:1009C0000C0F08BF95EA0C0F3FF43BAF94EA0C0FF5
:1009D0000AD150EA01347FF434AF95EA0C0F7FF46A
:1009E00025AF104619462CE795EA0C0F06D152EABE
:1009F00003353FF4FDAE1046194622E750EA4106A2
:100A000018BF52EA43067FF4C5AE50EA41047FF4B2
:100A10000DAF52EA43057FF4EBAE12E74FF0FF3C17
:100A200006E000BF4FF0010C02E000BF4FF0010CE8
:100A30004DF804CD4FEA410C7FEA6C5C4FEA430C61
:100A400018BF7FEA6C5C1BD001B050EA410C0CBFB0
:100A500052EA430C91EA030F02BF90EA020F002012
:100A6000704710F1000F91EA030F58BF994208BF79
:100A700090422CBFD8176FEAE37040F00100704736
:100A80004FEA410C7FEA6C5C02D150EA013C07D18D
:100A90004FEA430C7FEA6C5CD6D152EA033CD3D0D8
:100AA0005DF8040B704700BF8446104662468C46D2
:100AB0001946634600E000BF01B5FFF7B7FF002805
:100AC00048BF10F1000F01BD4DF808EDFFF7F4FF2E
:100AD0000CBF012000205DF808FB00BF4DF808EDB9
:100AE000FFF7EAFF34BF012000205DF808FB00BFDC
:100AF0004DF808EDFFF7E0FF94BF012000205DF8FE
:100B000008FB00BF4DF808EDFFF7CEFF94BF0120B2
:100B100000205DF808FB00BF4DF808EDFFF7C4FFAB
:100B200034BF012000205DF808FB00BF4FEA410CF4
:100B30007FEA6C5C02D150EA013C0AD14FEA430CD7
:100B40007FEA6C5C02D152EA033C02D14FF0000014
:100B500070474FF0010070474FEA410212F5001252
:100B600015D211D56FF47873B3EB625212D94FEAF4
:100B7000C12343F0004343EA505311F0004F23FADE
:100B800002F018BF404270474FF00000704750EA33
:100B9000013005D111F0004008BF6FF000407047F0
:100BA0004FF00000704700BF4FEA4102B2F1E0434E
:100BB00024BFB3F5001CDCF1FE5C0DD901F0004C44
:100BC0004FEAC0024CEA5070B2F1004F40EB830094
:100BD00008BF20F00100704711F0804F21D113F1C0
:100BE0003872BCBF01F00040704741F480114FEAF9
:100BF0005252C2F11802C2F1200C10FA0CF320FA82
:100C000002F018BF40F001004FEAC1234FEAD3239E
:100C100003FA0CFC40EA0C0023FA02F34FEA430308
:100C2000CCE77FEA625307D150EA01331EBF4FF091
:100C3000FE4040F44000704701F0004040F0FE40AC
:100C400040F40000704700BF53B94AB9002908BFFB
:100C500000281CBF4FF0FF314FF0FF3000F088B983
:100C6000ADF1080C6DE904CE00F006F8DDF804E003
:100C7000DDE9022304B070472DE9F047089D0F46D7
:100C800004468C46002B48D18A42164661D9B2FAF6
:100C900082F34BB1C3F1200201FA03FC20FA02F205
:100CA0009E4042EA0C0C9C404FEA164EB7B2BCFB89
:100CB000FEF1220C0EFB11CC42EA0C4201FB07F0C4
:100CC000904209D9B21801F1FF3C80F0EE809042C9
:100CD00040F2EB8002393244121AA4B2B2FBFEF0A9
:100CE0000EFB102244EA024400FB07F7A74209D991
:100CF000341900F1FF3280F0DA80A74240F2D78049
:100D00003444023840EA0140E41B00211DB1DC40BC
:100D10000023C5E90043BDE8F0878B4206D90DB139
:100D2000C5E9000100210846BDE8F087B3FA83F168
:100D3000002948D1BB4202D3824200F20781841AC3
:100D400067EB030201209446002DE4D0C5E9004C76
:100D5000E1E7002A00F09280B2FA82F3002B40F023
:100D6000A8808A1A4FEA164E1FFA86FC0121200C31
:100D7000B2FBFEF70EFB172240EA02420CFB07F023
:100D8000904207D9B21807F1FF3802D2904200F220
:100D9000E2804746121AA4B2B2FBFEF00EFB10220C
:100DA00044EA02440CFB00FCA44507D9341900F1C5
:100DB000FF3202D2A44500F2CB801046A4EB0C0413
:100DC00040EA0740A2E7C1F120068B4022FA06FC68
:100DD0004CEA030C07FA01F420FA06F3F7404FEA55
:100DE0001C49234300FA01F81FFA8CFEB7FBF9F007
:100DF0001C0C09FB107744EA074400FB0EF7A742DE
:100E000002FA01F20AD91CEB040400F1FF3A80F067
:100E10009B80A74240F2988002386444E41B9FB252
:100E2000B4FBF9F309FB134447EA044403FB0EFE49
:100E3000A64509D91CEB040403F1FF3780F082803A
:100E4000A6457FD9023B644443EA0040A4EB0E046C
:100E5000A0FB02E7BC427346B94663D360D05DB1E4
:100E6000B8EB030264EB090404FA06F622FA01F374
:100E70001E43CC40C5E9006400214CE762084808E5
:100E800042EAC1710B0C43EA00438AB242EA0342D0
:100E9000B3FBF6F1E407B4463746B6461F23B0FB72
:100EA000F6F0D21B41EA004161E7614614E71046C3
:100EB00028E7C3F1200120FA01F29E4027FA01F150
:100EC0009F403A434FEA164E1FFA86FCB1FBFEF7ED
:100ED0000EFB1710110C41EA004107FB0CF8884586
:100EE00004FA03F43AD9711807F1FF3001D28845AA
:100EF0001FD8A1EB0801B1FBFEF808FB0CF70EFBB5
:100F0000181192B242EA0142BA422FD2B21808F145
:100F1000FF31C6D2BA42C4D2A8F102013244C0E7BE
:100F2000F0459CD2BEEB020367EB0C070138B946D3
:100F300095E7A6EB08084144B81EB1FBFEF808FB94
:100F40000CF7DCE73B467FE7504667E70846FBE6E1
:100F50003444023832E7023F32441BE7A1EB080178
:100F60003846B1FBFEF808FB0CF7C8E7414698E7A6
:100F7000704700BF80B582B000AF00237B60194B83
:100F8000194A1A60194B1B685A1C18490A60002B31
:100F900022D1144802F01AFC0346002B1CD1114840
:100FA00000F0FEF87B68002B16D10E4800F0B4F874
:100FB0000346002B03D06FF007037B600CE0002199
:100FC000084802F0DFFE0346002B03D06FF0070352
:100FD0007B6001E000237B607B6818460837BD46D4
:100FE00080BD00BFF00100200058004044020020F6
:100FF00080B582B000AF00237B600F4B1B68002BD5
:1010000014D00D4B1B68013B0B4A13600A4B1B6845
:10101000002B0BD1094800F023F9084802F065F9CC
:101020000346002B02D06FF007037B607B681846F5
:101030000837BD4680BD00BF44020020F0010020FB
:1010400080B58AB004AFBA601A460346FB810B46EE
:10105000BB811346FB8000237B61BA89F9894FF479
:1010600080530293FB880193BB68009301230C48D3
:1010700002F07EF90346002B0CD0094802F0B4FBC5
:101080000346042B03D16FF065037B6102E06FF030
:1010900003037B617B6918461837BD4680BD00BFDE
:1010A000F001002080B58AB004AFBA601A4603464A
:1010B000FB810B46BB811346FB8000237B61BA8911
:1010C000F9894FF480530293FB880193BB68009326
:1010D00001230C4802F060FA0346002B0CD00948AB
:1010E00002F082FB0346042B03D16FF065037B61A2
:1010F00002E06FF003037B617B6918461837BD4639
:1011000080BD00BFF001002080B500AF01F07EFC83
:101110000346184680BD000080B584B000AF7860FB
:101120000023FB737B681C4A1A607B681B4A5A6069
:101130007B6800229A607B680122DA607B6800226B
:101140001A617B6800225A617B6800229A617B6881
:101150000022DA617B6800221A62786802F02AF8BD
:101160000346002B01D00123FB730021786802F0B5
:1011700009FE0346002B01D00123FB730021786890
:1011800002F04BFE0346002B01D00123FB73FB7BD7
:1011900018461037BD4680BD005800408129F10037
:1011A00080B5ACB000AF786007F11403882200214D
:1011B000184607F099F980237B610023BB6607F18D
:1011C0001403184603F0DAFC234BDB6C224A43F08D
:1011D0000203D364204BDB6C03F002033B613B69E9
:1011E0004FF48063C7F89C301223C7F8A030002367
:1011F000C7F8A4300323C7F8A8300423C7F8AC30DD
:1012000007F19C031946154801F01EFD4FF40063D9
:10121000C7F89C301223C7F8A0300023C7F8A430C9
:101220000323C7F8A8300423C7F8AC3007F19C03A8
:1012300019460A4801F008FD074B9B6D064A43F426
:1012400080039365044B9B6D03F48003FB60FB6894
:1012500000BFB037BD4680BD00100240000400480A
:1012600080B582B000AF7860094B9B6D084A23F4CB
:10127000800393654FF48061064801F08FFE4FF4C0
:101280000061044801F08AFE00BF0837BD4680BDFA
:10129000001002400004004880B483B000AF034651
:1012A000FB80B7F9063007EE903AF8EEE77A9FED4B
:1012B000057A67EE877AB0EE670A0C37BD465DF8AF
:1012C000047B704723DBF93D90B587B000AF7860B1
:1012D0002D4B1B68002BFBD02B4B00221A6007F113
:1012E0000C031946294800F00FFDFB681AB2284B81
:1012F0001B8819460B465B000B449B0019467B6814
:101300005C181046FFF7C8FFF0EE407AC4ED007A93
:101310003B6919B21E4B1B881A4613465B001344E7
:1013200001339B007A68D4180846FFF7B5FFF0EE4A
:10133000407AC4ED007A7B6919B2154B1B881A46B6
:1013400013465B00134402339B007A68D4180846A6
:10135000FFF7A2FFF0EE407AC4ED007A0C4B1B8839
:1013600001339AB20A4B1A80094B1B887F2BAFD9E5
:10137000074B00221A80074B00221A8000BF00BFD3
:101380001C37BD4690BD00BF0C030020D0020020DA
:10139000100300201203002080B582B000AF01F0DE
:1013A000CDFA00F027F800F0A7F800F075F80D4B23
:1013B00000221A6000F0E2F804F052FE0346FB71CE
:1013C00000233B600848FFF77FFF3B461A4607496A
:1013D000054804F05DFE3B681946054807F02EF805
:1013E00000BFEFE70C0300201403002014090020C5
:1013F00038AB000880B596B000AF07F11403442263
:101400000021184607F070F83B4600221A605A6027
:101410009A60DA601A614FF4007002F059FD0346D9
:10142000002B01D000F020F910237B610123FB6227
:1014300000233B6360237B630223FB6301233B6444
:1014400001237B642823BB640723FB6402233B65E1
:1014500002237B6507F11403184602F08FFD034653
:10146000002B01D000F000F90F233B6003237B60C9
:101470000023BB600023FB6000233B613B4604214B
:10148000184603F057F90346002B01D000F0ECF8A2
:1014900000BF5837BD4680BD80B500AF144B154A1C
:1014A0001A60134B4FF4E1325A60114B00229A60DC
:1014B0000F4B0022DA600E4B00221A610C4B0C22FB
:1014C0005A610B4B00229A61094B0022DA61084BEA
:1014D00000221A62064B00225A62054804F00AF8FC
:1014E0000346002B01D000F0BFF800BF80BD00BF55
:1014F000480200200038014080B588B000AF07F1F5
:101500000C0300221A605A609A60DA601A61194B63
:10151000DB6C184A43F00203D364164BDB6C03F018
:101520000203BB60BB68134BDB6C124A43F0080339
:10153000D364104BDB6C03F008037B607B684FF4D3
:101540000063FB604FF488133B6100237B6107F16C
:101550000C031946084801F077FB002200212820DF
:1015600001F03BFB282001F054FB00BF2037BD46B3
:1015700080BD00BF00100240000C004880B58AB05A
:1015800000AF00233B61D5233B751B4BBB601B4B5E
:10159000FB601B4BFB611B4BBB611B4B3B6207F1B1
:1015A00008031946194800F0F3F9FB1D19461748BE
:1015B00000F0C1FAFB796A2B01D000F055F813480E
:1015C00000F050FAB3EE0A0A104800F035FB04218F
:1015D0000E4800F04DFB01210C4800F007FC3B4693
:1015E00019460A4800F06CFB084800F0BAFA00BF40
:1015F0002837BD4680BD00BF750F0008F10F0008F9
:10160000A51000084110000809110008D0020020B0
:1016100080B483B000AF0346FB80FB88B3F5006F56
:1016200004D1054B1B680133034A136000BF0C371C
:10163000BD465DF8047B70470C03002080B584B084
:1016400000AFF860B9607A607B689AB24FF0FF3300
:10165000B968044803F09CFF7B6818461037BD4604
:1016600080BD00BF4802002080B400AF72B600BF4A
:1016700000BFFDE780B483B000AF0F4B1B6E0E4A76
:1016800043F0010313660C4B1B6E03F001037B60F8
:101690007B68094B9B6D084A43F080539365064B6A
:1016A0009B6D03F080533B603B6800BF0C37BD4629
:1016B0005DF8047B704700BF0010024080B5ACB0FD
:1016C00000AF786007F19C0300221A605A609A60AC
:1016D000DA601A6107F1140388220021184606F027
:1016E00003FF7B681B68214A93423AD101237B6147
:1016F0000023FB6407F11403184603F03FFA034686
:10170000002B01D0FFF7B0FF194B1B6E184A43F4B2
:1017100080431366164B1B6E03F480433B613B69A9
:10172000134BDB6C124A43F00203D364104BDB6CA7
:1017300003F00203FB60FB68C023C7F89C30022360
:10174000C7F8A0300023C7F8A4300323C7F8A83097
:101750000723C7F8AC3007F19C031946054801F090
:1017600073FA00BFB037BD4680BD00BF00380140EE
:10177000001002400004004880B400AF00BFFDE745
:1017800080B400AF00BFFDE780B400AF00BFFDE74D
:1017900080B400AF00BFFDE780B400AF00BFFDE73D
:1017A00080B400AF00BFBD465DF8047B704780B4D5
:1017B00000AF00BFBD465DF8047B704780B400AF4A
:1017C00000BFBD465DF8047B704780B500AF01F0F7
:1017D00009F900BF80BD80B500AF4FF4006001F093
:1017E000D1FC00BF80BD80B400AF01231846BD46C8
:1017F0005DF8047B704780B582B000AF78603960D7
:1018000006F0C4FE034616221A604FF0FF33184656
:101810000837BD4680BD80B582B000AF78604FF01C
:10182000FF317868FFF7E7FF00BFFDE780B586B0BE
:1018300000AFF860B9607A6000237B610AE0AFF323
:1018400000800146BB685A1CBA60CAB21A707B6934
:1018500001337B617A697B689A42F0DB7B681846CA
:101860001837BD4680BD80B483B000AF78604FF0BC
:10187000FF3318460C37BD465DF8047B704780B4D3
:1018800083B000AF786039603B684FF400525A6013
:10189000002318460C37BD465DF8047B704780B4C2
:1018A00083B000AF7860012318460C37BD465DF861
:1018B000047B704780B485B000AFF860B9607A608F
:1018C000002318461437BD465DF8047B70470000BE
:1018D00080B586B000AF7860144A154BD31A7B618F
:1018E0007B693B61134B1B68002B02D1114B124AE1
:1018F0001A60104B1A687B6813443A699A4207D2FF
:1019000006F044FE03460C221A604FF0FF3309E054
:10191000084B1B68FB60074B1A687B681344054A39
:101920001360FB6818461837BD4680BD0080012053
:10193000000400002009002068130020DFF834D0E4
:1019400000F0EAFF0C480D490D4A002302E0D4588C
:10195000C4500433C4188C42F9D30A4A0A4C0023F9
:1019600001E013600432A242FBD306F015FEFFF73C
:1019700013FDFEE70080012000000020D4010020BC
:10198000F8B50008D401002064130020FEE7000031
:1019900080B584B000AF786039600023FB607B685D
:1019A000002B03D14FF0FF33FB6051E03B681A6816
:1019B0007B681A603B685A687B685A603B689A6823
:1019C0007B689A603B681A7B7B681A733B681A696C
:1019D0007B681A613B685A697B685A613B689A69FF
:1019E0007B689A617B681D4A5A627B681C4A1A624E
:1019F0003B68DA697B689A627B687A68DA627B683E
:101A00001B68002B03D14FF0FF33FB6020E07B68A5
:101A10001B6898470346002B03D04FF0FF33FB6051
:101A200016E07B689B68022B12D17B6893F83430F8
:101A3000002B0DD10C23FB72FB7A1A461221786819
:101A400000F0B9F90346002B02D04FF0FF33FB60E2
:101A5000FB6818461037BD4680BD00BF71200008E6
:101A6000A720000880B582B000AF78607B68203383
:101A70000121184600F0C8FC0346002B02D04FF0AD
:101A8000FF3354E07B6820330121184600F038FC16
:101A90000346002B02D04FF0FF3348E07B68203331
:101AA0000021184600F012FF0346002B02D04FF031
:101AB000FF333CE07B68042283F837207B682033C7
:101AC0000021184600F0AAFB0346002B02D04FF07D
:101AD000FF332CE07B6820330021184600F03AFBEE
:101AE0000346002B02D04FF0FF3320E07B68042236
:101AF00083F838207B6820330021184600F0DAFB99
:101B00000346002B02D04FF0FF3310E07B682033F8
:101B10000621184600F0A8FB0346002B02D04FF028
:101B2000FF3304E07B68012283F834200023184649
:101B30000837BD4680BD80B582B000AF786039609F
:101B40007B6820333968184600F04DFC0346002BB3
:101B500002D04FF0FF3300E0002318460837BD469F
:101B600080BD80B582B000AF78607B6893F8353077
:101B7000012B01D1002314E07B6803F120027B6874
:101B800093F837301946104600F048FB0346002B07
:101B900002D04FF0FF3304E07B68012283F8352048
:101BA000002318460837BD4680BD000080B584B0CC
:101BB00000AF786039600023FB607B68203307F159
:101BC0000B021146184600F0EBFA0346002B02D038
:101BD0004FF0FF3323E0FB7A032B1BD801A252F80E
:101BE00023F000BFF51B00080D1C0008FD1B0008BA
:101BF000051C00083B680C4A1A600FE03B680B4A62
:101C00001A600BE03B680A4A1A6007E03B68094A21
:101C10001A6003E04FF0FF33FB6000BFFB6818461B
:101C20001037BD4680BD00BF23DB793D23DBF93D86
:101C300023DB793E23DBF93E80B582B000AF7860CC
:101C400087ED000A7B6893F83530012B06D197EDBC
:101C5000000A786800F0FEF8034605E097ED000AF8
:101C6000786800F083F9034618460837BD4680BD02
:101C700080B584B000AF786039603B68022B0BDD23
:101C80003B68042B06DD3B68082B01DC032304E0E2
:101C9000012302E0022300E00023FB737B68203372
:101CA000FA7B1146184600F055FA0346002B02D085
:101CB0004FF0FF3300E0002318461037BD4680BDCB
:101CC00080B584B000AF786039607B68203307F15D
:101CD00008021146184600F039FB0346002B02D0DB
:101CE0004FF0FF330CE0B7F908203B681A80B7F9D2
:101CF0000A203B685A80B7F90C203B689A80002381
:101D000018461037BD4680BD80B586B000AF7860FC
:101D100039604FF00003FB607B68203307F110024D
:101D20001146184600F012FB0346002B02D04FF07C
:101D3000FF333CE007F10C0319467868FFF736FFE4
:101D40000346002B02D04FF0FF3330E0B7F91030DC
:101D500007EE903AB8EEE77AD7ED037A67EE277A86
:101D6000FDEEE77A17EE902A3B681A60B7F9123059
:101D700007EE903AB8EEE77AD7ED037A67EE277A66
:101D8000FDEEE77A17EE902A3B685A60B7F91430F7
:101D900007EE903AB8EEE77AD7ED037A67EE277A46
:101DA000FDEEE77A17EE902A3B689A60002318460A
:101DB0001837BD4680BD80B582B000AF78600B4655
:101DC000FB701346BB707B6803F12000BA1CF978E6
:101DD000012300F0A1F90346002B02D04FF0FF339E
:101DE00000E0002318460837BD4680BD80B584B0AA
:101DF00000AF78600B46FB707B68203307F10C0264
:101E00001146184600F089FC0346002B02D04FF023
:101E1000FF331BE0FB78012B11D8FB7803F00103A3
:101E2000DAB23B7B62F300033B737B682033F968D3
:101E3000184600F00FFB0346002B06D002E04FF0DF
:101E4000FF3303E04FF0FF3300E000231846103764
:101E5000BD4680BD80B584B000AF786087ED000AD4
:101E6000D7ED007AB2EE097AF4EEC77AF1EE10FA05
:101E700001D8012358E0D7ED007AB3EE0A7AF4EEE8
:101E8000C77AF1EE10FA01D802234DE0D7ED007ABF
:101E90009FED2F7AF4EEC77AF1EE10FA01D8032302
:101EA00042E0D7ED007A9FED2B7AF4EEC77AF1EE9F
:101EB00010FA01D8042337E0D7ED007A9FED267A97
:101EC000F4EEC77AF1EE10FA01D805232CE0D7ED35
:101ED000007A9FED227AF4EEC77AF1EE10FA01D87B
:101EE000062321E0D7ED007A9FED1D7AF4EEC77A44
:101EF000F1EE10FA01D8072316E0D7ED007A9FED36
:101F0000197AF4EEC77AF1EE10FA01D808230BE043
:101F1000D7ED007A9FED147AF4EEC77AF1EE10FA5D
:101F200001D8092300E00A23FB737B682033FA7B86
:101F30001146184600F072F90346002B02D04FF00C
:101F4000FF3300E0002318461037BD4680BD00BFB8
:101F5000000050420000D042000050430000D04337
:101F6000004050440080CF440020504580B483B0EE
:101F700000AF786087ED000AD7ED007AB2EE097AFB
:101F8000F4EEC77AF1EE10FA01D8012358E0D7ED4C
:101F9000007AB3EE0A7AF4EEC77AF1EE10FA01D8BD
:101FA00002234DE0D7ED007A9FED2A7AF4EEC77A4E
:101FB000F1EE10FA01D8032342E0D7ED007A9FED4D
:101FC000267AF4EEC77AF1EE10FA01D8042337E04E
:101FD000D7ED007A9FED217AF4EEC77AF1EE10FA90
:101FE00001D805232CE0D7ED007A9FED1D7AF4EEA1
:101FF000C77AF1EE10FA01D8062321E0D7ED007A76
:102000009FED187AF4EEC77AF1EE10FA01D80723A3
:1020100016E0D7ED007A9FED147AF4EEC77AF1EE70
:1020200010FA01D808230BE0D7ED007A9FED0F7A64
:10203000F4EEC77AF1EE10FA01D8092300E00A2382
:102040007A6882F83730002318460C37BD465DF8B1
:10205000047B7047000050420000D0420000504313
:102060000000D043004050440080CF440020504541
:1020700090B587B000AFF8607A601A460B46FB72E5
:1020800013463B81FB687B617B695C697B691B7BD9
:102090001846FB7A99B23B897A68A04703461846EE
:1020A0001C37BD4690BD90B587B000AFF8607A6030
:1020B0001A460B46FB7213463B81FB687B617B69CA
:1020C0001C697B691B7B1846FB7A99B23B897A684D
:1020D000A047034618461C37BD4690BD90B587B053
:1020E00000AFF8607A601A460B46FB7213463B81DC
:1020F000FB68002B02D14FF0FF3309E0FB685C68FE
:10210000FB68D8683B89F97A7A68A04778617B696F
:1021100018461C37BD4690BD90B587B000AFF8603B
:102120007A601A460B46FB7213463B81FB68002B14
:1021300002D14FF0FF3309E0FB681C68FB68D868E8
:102140003B89F97A7A68A04778617B6918461C3721
:10215000BD4690BD80B584B000AF78600B46FB7083
:1021600007F10802012310217868FFF7B7FFF86034
:10217000FB68002B0FD1FB7803F00303DAB23B7A44
:1021800062F383033B7207F1080201231021786890
:10219000FFF7C2FFF860FB6818461037BD4680BDE8
:1021A00080B584B000AF7860396007F10802012380
:1021B00010217868FFF792FFF860FB68002B01D0D0
:1021C000FB6826E03B7AC3F38103DBB2032B1BD809
:1021D00001A252F823F000BFE9210008F121000814
:1021E000F9210008012200083B6800221A700FE064
:1021F0003B6801221A700BE03B6802221A7007E06C
:102200003B6803221A7003E03B6804221A7000BF87
:10221000FB6818461037BD4680BD00BF80B584B04E
:1022200000AF78600B46FB7007F108020123102114
:102230007868FFF753FFF860FB68002B0FD1FB783D
:1022400003F00F03DAB23B7A62F307133B7207F134
:102250000802012310217868FFF75EFFF860FB6831
:1022600018461037BD4680BD80B584B000AF786099
:102270000B46FB7007F10802012311217868FFF774
:102280002DFFF860FB68002B0FD1FB7803F00703EC
:10229000DAB23B7A62F343033B7207F1080201238F
:1022A00011217868FFF738FFF860FB68184610378F
:1022B000BD4680BD80B584B000AF78600B46FB7032
:1022C00007F10802012311217868FFF707FFF86082
:1022D000FB68002B0FD1FB7803F00F03DAB23B7AD7
:1022E00062F307133B7207F108020123112178689A
:1022F000FFF712FFF860FB6818461037BD4680BD37
:1023000080B584B000AF78600B46FB7007F108021F
:10231000012312217868FFF7E1FEF860FB68002BCB
:102320000FD1FB7803F00103DAB23B7A62F3861334
:102330003B7207F10802012312217868FFF7ECFED7
:10234000F860FB6818461037BD4680BD80B586B082
:1023500000AF7860396007F10C0206232821786805
:10236000FFF7BCFE78617B69002B01D07B6936E00A
:102370007B7B1AB23B681A803B68B3F900309BB292
:102380001B029BB23A7B13449BB21AB23B681A8081
:10239000FA7B3B68023312B21A803B680233B3F90E
:1023A00000309BB21B029BB2BA7B13449AB23B68CB
:1023B000023312B21A807A7C3B68043312B21A805C
:1023C0003B680433B3F900309BB21B029BB23A7CEA
:1023D00013449AB23B68043312B21A807B691846E0
:1023E0001837BD4680BD80B584B000AF78603960D5
:1023F00001233A680F217868FFF770FEF860FB68E8
:1024000018461037BD4680BD80B584B000AF7860F7
:102410000B46FB7007F10802012312217868FFF7D1
:102420005DFEF860FB68002B0FD1FB7803F0010321
:10243000DAB23B7A62F382033B7207F108020123AE
:1024400012217868FFF768FEF860FB6818461037BD
:10245000BD4680BD80B58AB000AF7860396007F1B5
:102460001C0201230D217868FFF738FE78627B6A31
:10247000002B47D13B78C3F30003DAB23B7F62F312
:1024800000033B773B78C3F34003DAB23B7F62F350
:1024900041033B773B78C3F38003DAB23B7F62F3BF
:1024A00082033B773B78C3F3C003DAB23B7F62F32E
:1024B000C3033B773B78C3F30013DAB23B7F62F38D
:1024C00004133B773B78C3F34013DAB23B7F62F3EC
:1024D00045133B773B78C3F38013DAB23B7F62F35B
:1024E00086133B773B78C3F3C013DAB23B7F62F3CA
:1024F000C7133B7707F11C0201230D217868FFF712
:102500000BFE78627B6A002B07D107F118020123CA
:102510005E217868FFF7E2FD78627B6A002B07D1C5
:1025200007F1140201235F217868FFF7D7FD786275
:102530007B6A002B47D17B78C3F30003DAB23B7E82
:1025400062F300033B767B78C3F34003DAB23B7E51
:1025500062F341033B767B78C3F38003DAB23B7EC0
:1025600062F382033B767B78C3F3C003DAB23B7E2F
:1025700062F3C3033B767B78C3F30013DAB23B7E8E
:1025800062F304133B767B78C3F34013DAB23B7EED
:1025900062F345133B767B78C3F38013DAB23B7E5C
:1025A00062F386133B767B78C3F3C013DAB23B7ECB
:1025B00062F3C7133B7607F1180201235E217868A6
:1025C000FFF7AAFD78627B6A002B07D107F11002A2
:1025D000012313217868FFF781FD78627B6A002B65
:1025E0000FD1BB78C3F30003DAB23B7C62F3041370
:1025F0003B7407F11002012313217868FFF78CFD6B
:1026000078627B6A002B07D107F1200201231A218F
:102610007868FFF763FD78627B6A002B11D1BB7885
:10262000C3F30003DAB297F8203062F3C71387F8D8
:10263000203007F1200201231A217868FFF76CFD92
:1026400078627B6A002B58D107F10C0201235821D4
:102650007868FFF743FD78627B7803F00403DBB210
:10266000002B41D17B7803F01003DBB2002B3BD170
:102670007B7803F02003DBB2002B35D17B7803F0AD
:102680004003DBB2002B2FD17B7803F00803DBB2D1
:10269000002B29D17B7823F07F03DBB2002B23D1E1
:1026A0003B7D03F00403DBB2002B1DD13B7D03F027
:1026B0001003DBB2002B17D13B7D03F02003DBB20C
:1026C000002B11D13B7D03F04003DBB2002B0BD17B
:1026D0003B7D03F00803DBB2002B05D13B7D23F0EB
:1026E0007F03DBB2002B04D03B7B43F080033B73C2
:1026F00003E03B7B23F080033B737B6A002B07D115
:1027000007F10C02012358217868FFF705FD786274
:102710007B6A18462837BD4680BD80B588B000AFBB
:102720007860396007F1140201230D217868FFF702
:10273000D5FCF86107F1100201235E217868FFF7EC
:10274000CDFC0246FB691344FB6107F10C02012337
:1027500013217868FFF7C2FC0246FB691344FB6152
:1027600007F1180201231A217868FFF7B7FC024627
:10277000FB691344FB61FB69002B40F0A2803B7DA9
:10278000C3F30003D9B23A68137861F300031370FE
:102790003B7DC3F34003D9B23A68137861F3410338
:1027A00013703B7DC3F38003D9B23A68137861F3A9
:1027B000820313703B7DC3F3C003D9B23A68137828
:1027C00061F3C30313703B7DC3F30013D9B23A68BE
:1027D000137861F3041313703B7DC3F34013D9B234
:1027E0003A68137861F3451313703B7DC3F380138C
:1027F000D9B23A68137861F3861313703B7DC3F343
:10280000C013D9B23A68137861F3C71313703B7CD5
:10281000C3F30003D9B23A68537861F300035370ED
:102820003B7CC3F34003D9B23A68537861F3410368
:1028300053703B7CC3F38003D9B23A68537861F399
:10284000820353703B7CC3F3C003D9B23A68537818
:1028500061F3C30353703B7CC3F30013D9B23A68EE
:10286000537861F3041353703B7CC3F34013D9B224
:102870003A68537861F3451353703B7CC3F380137C
:10288000D9B23A68537861F3861353703B7CC3F333
:10289000C013D9B23A68537861F3C71353703B7BC6
:1028A000C3F30013D9B23A68937861F300039370CD
:1028B0003B7EC3F3C013D9B23A68937861F3000347
:1028C0009370FB6918462037BD4680BD80B584B043
:1028D00000AF78600B46FB7007F1080201230A2164
:1028E0007868FFF7FBFBF860FB68002B0FD1FB78E3
:1028F00003F00703DAB23B7A62F302033B7207F19B
:10290000080201230A217868FFF706FCF860FB68DB
:1029100018461037BD4680BD80B400AF064BD3F8D3
:102920008830054A43F47003C2F8883000BFBD46C2
:102930005DF8047B704700BF00ED00E080B582B019
:1029400000AF0023FB71032000F03CF90F2000F0E2
:102950000DF80346002B02D00123FB7101E0FEF7C6
:1029600089FEFB7918460837BD4680BD80B584B026
:1029700000AF78600023FB73174B1B78002B23D02C
:10298000164B1A68144B1B7819464FF47A73B3FB35
:10299000F1F3B2FBF3F3184600F049F90346002BBC
:1029A0000FD17B680F2B09D8002279684FF0FF30D8
:1029B00000F013F90A4A7B68136007E00123FB73F8
:1029C00004E00123FB7301E00123FB73FB7B18464A
:1029D0001037BD4680BD00BF080000200000002069
:1029E0000400002080B400AF064B1B781A46064B4B
:1029F0001B681344044A136000BFBD465DF8047BA6
:102A0000704700BF080000202409002080B400AFF8
:102A1000034B1B681846BD465DF8047B704700BF3A
:102A20002409002080B485B000AF78607B6803F093
:102A30000703FB600C4BDB68BB60BA684FF6FF0313
:102A40001340BB60FB681A02BB68134343F0BF63CB
:102A500043F40033BB60044ABB68D36000BF143743
:102A6000BD465DF8047B704700ED00E080B400AF28
:102A7000044BDB681B0A03F007031846BD465DF8EC
:102A8000047B704700ED00E080B483B000AF0346E4
:102A9000FB7197F90730002B0BDBFB7903F01F026A
:102AA000074997F907305B09012000FA02F241F863
:102AB000232000BF0C37BD465DF8047B704700BF84
:102AC00000E100E080B483B000AF03463960FB71E1
:102AD00097F90730002B0ADB3B68DAB20C4997F90B
:102AE00007301201D2B20B4483F800230AE03B689E
:102AF000DAB20849FB7903F00F03043B1201D2B2AA
:102B00000B441A7600BF0C37BD465DF8047B704756
:102B100000E100E000ED00E080B489B000AFF860B3
:102B2000B9607A60FB6803F00703FB61FB69C3F1DE
:102B30000703042B28BF0423BB61FB690433062B66
:102B400002D9FB69033B00E000237B614FF0FF32B9
:102B5000BB6902FA03F3DA43BB681A407B699A4007
:102B60004FF0FF317B6901FA03F3D9437B680B40D7
:102B7000134318462437BD465DF8047B70470000B8
:102B800080B582B000AF78607B68013BB3F1807F95
:102B900001D301230FE00A4A7B68013B53600F21F8
:102BA0004FF0FF30FFF78EFF054B00229A60044B79
:102BB00007221A60002318460837BD4680BD00BFB3
:102BC00010E000E080B582B000AF78607868FFF771
:102BD00029FF00BF0837BD4680BD80B586B000AF75
:102BE0000346B9607A60FB7300237B61FFF73EFF09
:102BF00078617A68B9687869FFF78EFF024697F9BD
:102C00000F3011461846FFF75DFF00BF1837BD466D
:102C100080BD80B582B000AF0346FB7197F90730E5
:102C20001846FFF731FF00BF0837BD4680BD80B5AD
:102C300082B000AF78607868FFF7A2FF03461846BD
:102C40000837BD4680BD000080B487B000AF786013
:102C5000396000237B617FE13B681A6801217B6951
:102C600001FA03F31340FB60FB68002B00F0718155
:102C70003B685B6803F00303012B05D03B685B688E
:102C800003F00303022B30D17B689B683B617B69B7
:102C90005B00032202FA03F3DB433A6913403B6112
:102CA0003B68DA687B695B0002FA03F33A69134315
:102CB0003B617B683A699A607B685B683B61012293
:102CC0007B6902FA03F3DB433A6913403B613B68DB
:102CD0005B681B0903F001027B6902FA03F33A699E
:102CE00013433B617B683A695A603B685B6803F059
:102CF0000303032B18D17B68DB6A3B6101227B69EC
:102D000002FA03F3DB433A6913403B613B685B68BB
:102D1000DB0803F001027B6902FA03F33A6913430B
:102D20003B617B683A69DA623B685B6803F00303E6
:102D3000032B17D07B68DB683B617B695B00032258
:102D400002FA03F3DB433A6913403B613B689A683C
:102D50007B695B0002FA03F33A6913433B617B68CA
:102D60003A69DA603B685B6803F00303022B23D106
:102D70007B69DA087B68083253F822303B617B6953
:102D800003F007039B000F2202FA03F3DB433A69C7
:102D900013403B613B681A697B6903F007039B00A2
:102DA00002FA03F33A6913433B617B69DA087B68F3
:102DB0000832396943F822107B681B683B617B69E4
:102DC0005B00032202FA03F3DB433A6913403B61E1
:102DD0003B685B6803F003027B695B0002FA03F364
:102DE0003A6913433B617B683A691A603B685B68E8
:102DF00003F44033002B00F0AC805F4B1B6E5E4A47
:102E000043F0010313665C4B1B6E03F00103BB60D0
:102E1000BB685A4A7B699B08023352F823303B61F6
:102E20007B6903F003039B000F2202FA03F3DB43E9
:102E30003A6913403B617B68B3F1904F25D07B68C2
:102E40004F4A93421FD07B684E4A934219D07B6809
:102E50004D4A934213D07B684C4A93420DD07B6815
:102E60004B4A934207D07B684A4A934201D10623DA
:102E70000CE007230AE0052308E0042306E003230F
:102E800004E0022302E0012300E000237A6902F05B
:102E90000302920093403A6913433B6137497B69CF
:102EA0009B0802333A6941F823203B4B9B683B6106
:102EB000FB68DB433A6913403B613B685B6803F4A2
:102EC0008013002B03D03A69FB6813433B61324AFD
:102ED0003B699360304BDB683B61FB68DB433A69DD
:102EE00013403B613B685B6803F40013002B03D085
:102EF0003A69FB6813433B61274A3B69D360264B21
:102F00005B683B61FB68DB433A6913403B613B68AC
:102F10005B6803F40033002B03D03A69FB6813436A
:102F20003B611D4A3B6953601B4B1B683B61FB685F
:102F3000DB433A6913403B613B685B6803F48033D1
:102F4000002B03D03A69FB6813433B61124A3B698B
:102F500013607B6901337B613B681A687B6922FAE5
:102F600003F3002B7FF478AE00BF00BF1C37BD46D3
:102F70005DF8047B704700BF001002400000014074
:102F80000004004800080048000C004800100048F9
:102F900000140048001800480004014080B487B0C5
:102FA00000AF7860396000237B61CDE001227B694E
:102FB00002FA03F33A6813403B613B69002B00F0CF
:102FC000C080684A7B699B08023352F82330FB605B
:102FD0007B6903F003039B000F2202FA03F3FA68F4
:102FE0001340FB607B68B3F1904F25D07B685E4A4D
:102FF00093421FD07B685D4A934219D07B685C4A3C
:10300000934213D07B685B4A93420DD07B685A4A47
:10301000934207D07B68594A934201D106230CE0C2
:1030200007230AE0052308E0042306E0032304E065
:10303000022302E0012300E000237A6902F0030288
:1030400092009340FA689A4232D14D4B1A683B691C
:10305000DB434B4913400B60494B5A683B69DB43E8
:10306000474913404B60464BDA683B69DB434449B0
:103070001340CB60424B9A683B69DB4340491340A5
:103080008B607B6903F003039B000F2202FA03F3BA
:10309000FB60344A7B699B08023352F82310FB68BB
:1030A000DA4330487B699B080A40023340F823200A
:1030B0007B681A687B695B00032101FA03F31A43FA
:1030C0007B681A607B69DA087B68083253F8221043
:1030D0007B6903F007039B000F2202FA03F3DB4333
:1030E0007A69D20819407B68083243F822107B685D
:1030F0009A687B695B00032101FA03F3DB431A4002
:103100007B689A607B685A6801217B6901FA03F346
:10311000DB431A407B685A607B68DA687B695B0036
:10312000032101FA03F3DB431A407B68DA607B6812
:10313000DA6A01217B6901FA03F3DB431A407B68F9
:10314000DA627B6901337B613A687B6922FA03F3B7
:10315000002B7FF42BAF00BF00BF1C37BD465DF8CE
:10316000047B70470000014000040048000800484C
:10317000000C0048001000480014004800180048E7
:103180000004014080B582B000AF0346FB80084BCD
:103190005A69FB881340002B06D0054AFB8853610F
:1031A000FB881846FEF734FA00BF0837BD4680BDDD
:1031B0000004014080B582B000AF78607B68002BCE
:1031C00001D101238DE07B6893F84130DBB2002B05
:1031D00006D17B68002283F84020786800F0B4F8BC
:1031E0007B68242283F841207B681B681A687B680F
:1031F0001B6822F001021A607B685A687B681B68B2
:1032000022F070621A617B681B689A687B681B6891
:1032100022F400429A607B68DB68012B07D17B684F
:103220009A687B681B6842F400429A6006E07B68FB
:103230009A687B681B6842F404429A607B68DB688A
:10324000022B08D17B681B685A687B681B6842F4B4
:1032500000625A6007E07B681B685A687B681B68DD
:1032600022F400625A607B681B685B687A681268A7
:1032700043F0007343F4004353607B681B68DA68D3
:103280007B681B6822F40042DA607B681A697B68FD
:103290005B6942EA03017B689B691A027B681B68D1
:1032A0000A43DA607B68D9697B681A6A7B681B68A5
:1032B0000A431A607B681B681A687B681B6842F0C7
:1032C00001021A607B6800225A647B68202283F81E
:1032D00041207B6800221A637B68002283F8422029
:1032E000002318460837BD4680BD80B582B000AFC8
:1032F00078607B68002B01D1012321E07B682422C8
:1033000083F841207B681B681A687B681B6822F081
:1033100001021A60786800F021F87B6800225A6484
:103320007B68002283F841207B6800221A637B6857
:10333000002283F842207B68002283F8402000238B
:1033400018460837BD4680BD80B483B000AF7860B2
:1033500000BF0C37BD465DF8047B704780B483B076
:1033600000AF786000BF0C37BD465DF8047B704746
:1033700080B588B002AFF860084611461A46034689
:103380007B810B463B811346FB80FB6893F8413001
:10339000DBB2202B40F0F9803B6A002B02D0BB8CC3
:1033A000002B05D1FB684FF400725A640123EDE055
:1033B000FB6893F84030012B01D10223E6E0FB6863
:1033C000012283F84020FFF721FB78617B6900939D
:1033D000192301224FF40041F86800F0DDFA03469A
:1033E000002B01D00123D1E0FB68212283F841208A
:1033F000FB68402283F84220FB6800225A64FB6885
:103400003A6A5A62FB68BA8C5A85FB6800225A6392
:10341000F8883A8979897B690193BB6A00930346EE
:10342000F86800F0EDF90346002B05D0FB68002298
:1034300083F840200123A9E0FB685B8D9BB2FF2B42
:103440000ED9FB68FF221A85FB681B8DDAB27989D9
:10345000002300934FF08073F86800F061FC0FE0E8
:10346000FB685B8D9AB2FB681A85FB681B8DDAB22C
:103470007989002300934FF00073F86800F050FC46
:103480007A69B96AF86800F0E0FA0346002B01D0C7
:1034900001237BE0FB685B6A1A78FB681B689A6211
:1034A000FB685B6A5A1CFB685A62FB685B8D9BB2C7
:1034B000013B9AB2FB685A85FB681B8D013B9AB2AF
:1034C000FB681A85FB685B8D9BB2002B34D0FB68D0
:1034D0001B8D002B30D17B690093BB6A00228021B9
:1034E000F86800F059FA0346002B01D001234DE0A3
:1034F000FB685B8D9BB2FF2B0ED9FB68FF221A8500
:10350000FB681B8DDAB27989002300934FF080733A
:10351000F86800F005FC0FE0FB685B8D9AB2FB6871
:103520001A85FB681B8DDAB27989002300934FF06E
:103530000073F86800F0F4FBFB685B8D9BB2002B16
:103540009ED17A69B96AF86800F0C6FA0346002B82
:1035500001D001231AE0FB681B682022DA61FB68B6
:103560001B685968FB681A680A4B0B405360FB687C
:10357000202283F84120FB68002283F84220FB6868
:10358000002283F84020002300E002231846183769
:10359000BD4680BD00E800FE80B588B002AFF8608F
:1035A000084611461A4603467B810B463B8113466B
:1035B000FB80FB6893F84130DBB2202B40F0FD80AC
:1035C0003B6A002B02D0BB8C002B05D1FB684FF46B
:1035D00000725A640123F1E0FB6893F84030012B3C
:1035E00001D10223EAE0FB68012283F84020FFF7C3
:1035F0000DFA78617B690093192301224FF4004191
:10360000F86800F0C9F90346002B01D00123D5E08A
:10361000FB68222283F84120FB68402283F8422085
:10362000FB6800225A64FB683A6A5A62FB68BA8CEB
:103630005A85FB6800225A63F8883A8979897B6940
:103640000193BB6A00930346F86800F02DF9034626
:10365000002B05D0FB68002283F840200123ADE059
:10366000FB685B8D9BB2FF2B0ED9FB6801221A858C
:10367000FB681B8DDAB27989524B00934FF080734F
:10368000F86800F04DFB0FE0FB685B8D9AB2FB68B9
:103690001A85FB681B8DDAB279894A4B00934FF08B
:1036A0000073F86800F03CFB7B690093BB6A002262
:1036B0000421F86800F070F90346002B01D00123C3
:1036C0007CE0FB681B685A6AFB685B6AD2B21A70BE
:1036D000FB685B6A5A1CFB685A62FB681B8D013BE6
:1036E0009AB2FB681A85FB685B8D9BB2013B9AB26C
:1036F000FB685A85FB685B8D9BB2002B34D0FB685E
:103700001B8D002B30D17B690093BB6A0022802186
:10371000F86800F041F90346002B01D001234DE089
:10372000FB685B8D9BB2FF2B0ED9FB6801221A85CB
:10373000FB681B8DDAB27989002300934FF0807308
:10374000F86800F0EDFA0FE0FB685B8D9AB2FB6859
:103750001A85FB681B8DDAB27989002300934FF03C
:103760000073F86800F0DCFAFB685B8D9BB2002BFD
:103770009AD17A69B96AF86800F0AEF90346002B6D
:1037800001D001231AE0FB681B682022DA61FB6884
:103790001B685968FB681A680B4B0B405360FB6849
:1037A000202283F84120FB68002283F84220FB6836
:1037B000002283F84020002300E002231846183737
:1037C000BD4680BD0024008000E800FE80B483B0C8
:1037D00000AF78607B6893F84130DBB218460C3755
:1037E000BD465DF8047B704780B483B000AF78605D
:1037F0007B685B6C18460C37BD465DF8047B7047F0
:1038000080B586B002AFF860084611461A460346F6
:103810007B810B463B811346FB80FB88DAB27989BA
:10382000204B00934FF08073F86800F079FAFA6942
:10383000B969F86800F009F90346002B01D00123AB
:103840002CE0FB88012B05D13B89DAB2FB681B68B1
:103850009A6215E03B891B0A9BB2DAB2FB681B68CF
:103860009A62FA69B969F86800F0EFF80346002B2C
:1038700001D0012312E03B89DAB2FB681B689A622F
:10388000FB690093BB6900228021F86800F084F88E
:103890000346002B01D0012300E000231846103717
:1038A000BD4680BD0020008080B586B002AFF860C4
:1038B000084611461A4603467B810B463B81134658
:1038C000FB80FB88DAB27989204B00930023F868EB
:1038D00000F026FAFA69B969F86800F0B6F803460C
:1038E000002B01D001232CE0FB88012B05D13B8963
:1038F000DAB2FB681B689A6215E03B891B0A9BB22F
:10390000DAB2FB681B689A62FA69B969F86800F074
:103910009CF80346002B01D0012312E03B89DAB268
:10392000FB681B689A62FB690093BB690022402117
:10393000F86800F031F80346002B01D0012300E0C5
:10394000002318461037BD4680BD00BF0020008010
:1039500080B483B000AF78607B681B689B6903F01C
:103960000203022B03D17B681B6800229A627B68EA
:103970001B689B6903F00103012B07D07B681B6860
:103980009A697B681B6842F001029A6100BF0C379C
:10399000BD465DF8047B704780B584B000AFF86029
:1039A000B9603B601346FB713BE0BA693968F8685F
:1039B00000F0D6F80346002B01D0012341E03B681C
:1039C000B3F1FF3F2DD0FFF721F80246BB69D31AB0
:1039D0003A689A4202D33B68002B22D1FB681B68ED
:1039E0009A69BB681340BA689A420CBF012300234E
:1039F000DBB21A46FB799A4213D1FB685B6C43F049
:103A00002002FB685A64FB68202283F84120FB688F
:103A1000002283F84220FB68002283F84020012323
:103A20000FE0FB681B689A69BB681340BA689A424A
:103A30000CBF01230023DBB21A46FB799A42B4D0B3
:103A4000002318461037BD4680BD80B584B000AF56
:103A5000F860B9607A6033E07A68B968F86800F0B5
:103A60007FF80346002B01D0012331E0BB68B3F19E
:103A7000FF3F25D0FEF7CAFF02467B68D31ABA681B
:103A80009A4202D3BB68002B1AD1FB681B689B6962
:103A900003F00203022B13D0FB685B6C43F020029F
:103AA000FB685A64FB68202283F84120FB680022EF
:103AB00083F84220FB68002283F84020012307E0BE
:103AC000FB681B689B6903F00203022BC4D100232F
:103AD00018461037BD4680BD80B584B000AFF86091
:103AE000B9607A602FE07A68B968F86800F038F851
:103AF0000346002B01D001232DE0FEF787FF02468D
:103B00007B68D31ABA689A4202D3BB68002B1AD1D9
:103B1000FB681B689B6903F02003202B13D0FB6814
:103B20005B6C43F02002FB685A64FB68202283F838
:103B30004120FB68002283F84220FB68002283F8C2
:103B40004020012307E0FB681B689B6903F020030A
:103B5000202BC8D1002318461037BD4680BD000079
:103B600080B58AB000AFF860B9607A60002387F84A
:103B70002730FB681B689B69BB6100233B627B6845
:103B8000FB61BB6903F01003002B68D0FB681B6866
:103B90001022DA6149E0BB68B3F1FF3F45D0FEF780
:103BA00035FF0246FB69D31ABA689A4202D3BB6852
:103BB000002B3AD1FB681B685B6803F480437B6190
:103BC000FB6893F84230FB74FB681B689B6903F445
:103BD0000043B3F5004F21D17B69B3F5804F1DD071
:103BE000FB7C202B1AD0FB681B685A68FB681B689B
:103BF00042F480425A60FEF709FFF8610EE0FEF7DA
:103C000005FF0246FB69D31A192B07D93B6A43F01B
:103C100020033B62012387F8273006E0FB681B681E
:103C20009B6903F02003202BE9D1FB681B689B698B
:103C300003F02003202B03D097F82730002BAAD0C5
:103C400097F82730002B03D1FB681B682022DA612C
:103C50003B6A43F004033B62012387F82730FB688B
:103C60001B689B69BB61BB6903F48073002B0BD09D
:103C70003B6A43F001033B62FB681B684FF48072B0
:103C8000DA61012387F82730BB6903F48063002BD6
:103C90000BD03B6A43F008033B62FB681B684FF4A0
:103CA0008062DA61012387F82730BB6903F400736F
:103CB000002B0BD03B6A43F002033B62FB681B689E
:103CC0004FF40072DA61012387F8273097F8273024
:103CD000002B1CD0F868FFF73BFEFB681B68596897
:103CE000FB681A680D4B0B405360FB685A6C3B6ACB
:103CF0001A43FB685A64FB68202283F84120FB6862
:103D0000002283F84220FB68002283F8402097F8C5
:103D1000273018462837BD4680BD00BF00E800FEAA
:103D200080B487B000AFF8607B600B467B811346A0
:103D30007B727B89C3F309027B7A1B0403F47F0344
:103D40001A437B681A433B6A134323F000437B61A9
:103D5000FB681B685A683B6A5B0D03F48061084B83
:103D60000B43DB4302EA0301FB681B687A690A43E1
:103D70005A6000BF1C37BD465DF8047B704700BF2A
:103D8000FF63FF0380B483B000AF786039607B6865
:103D900093F84130DBB2202B38D17B6893F8403068
:103DA000012B01D1022332E07B68012283F84020FD
:103DB0007B68242283F841207B681B681A687B6833
:103DC0001B6822F001021A607B681B681A687B6816
:103DD0001B6822F480521A607B681B6819687B6834
:103DE0001B683A680A431A607B681B681A687B681C
:103DF0001B6842F001021A607B68202283F8412090
:103E00007B68002283F84020002300E0022318464C
:103E10000C37BD465DF8047B704780B485B000AFB9
:103E2000786039607B6893F84130DBB2202B39D160
:103E30007B6893F84030012B01D1022333E07B688B
:103E4000012283F840207B68242283F841207B688C
:103E50001B681A687B681B6822F001021A607B6885
:103E60001B681B68FB60FB6823F47063FB603B68A6
:103E70001B02FA681343FB607B681B68FA681A60D0
:103E80007B681B681A687B681B6842F001021A6035
:103E90007B68202283F841207B68002283F8402041
:103EA000002300E0022318461437BD465DF8047B6A
:103EB0007047000080B400AF044B1B6803F4C0637C
:103EC0001846BD465DF8047B704700BF0070004097
:103ED00080B485B000AF78607B68B3F5007F30D1E7
:103EE000234B1B6803F4C063B3F5007F38D0204B2D
:103EF0001B6823F4C0631E4A43F4007313601D4B18
:103F00001B68322202FB03F31B4AA2FB03239B0C18
:103F10000133FB6002E0FB68013BFB60144B5B6913
:103F200003F48063B3F5806F02D1FB68002BF2D1FC
:103F30000F4B5B6903F48063B3F5806F10D10323EB
:103F40000FE00B4B1B6803F4C063B3F5806F07D021
:103F5000074B1B6823F4C063054A43F48063136076
:103F6000002318461437BD465DF8047B704700BF38
:103F7000007000400000002083DE1B4380B588B045
:103F800000AF78607B68002B01D10123CAE3974B17
:103F90009B6803F00C03BB61944BDB6803F00303E5
:103FA0007B617B681B6803F01003002B00F0E4804A
:103FB000BB69002B07D0BB690C2B40F08B807B6961
:103FC000012B40F08780894B1B6803F00203002B14
:103FD00005D07B689B69002B01D10123A2E37B689C
:103FE0001A6A824B1B6803F00803002B04D07F4B36
:103FF0001B6803F0F00305E07C4BD3F894301B09F9
:1040000003F0F003934223D27B681B6A184600F04A
:1040100055FD0346002B01D0012383E3734B1B683E
:10402000724A43F008031360704B1B6823F0F002E0
:104030007B681B6A6D4913430B606C4B5B6823F410
:104040007F427B68DB691B02684913434B6025E0B4
:10405000664B1B68654A43F008031360634B1B689B
:1040600023F0F0027B681B6A604913430B605F4BCF
:104070005B6823F47F427B68DB691B025B49134367
:104080004B60BB69002B09D17B681B6A184600F0A6
:1040900015FD0346002B01D0012343E300F04AFC49
:1040A0000246524B9B681B0903F00F035049CB5C3F
:1040B00003F01F0322FA03F34E4A13604E4B1B68B2
:1040C0001846FEF753FC0346FB73FB7B002B52D0D4
:1040D000FB7B27E37B689B69002B32D0434B1B683B
:1040E000424A43F001031360FEF790FC386108E098
:1040F000FEF78CFC02463B69D31A022B01D903233D
:1041000010E33A4B1B6803F00203002BF0D0374B4F
:104110001B68364A43F008031360344B1B6823F0D6
:10412000F0027B681B6A314913430B602F4B5B68BD
:1041300023F47F427B68DB691B022C4913434B60ED
:104140001AE02A4B1B68294A23F001031360FEF78B
:104150005DFC386108E0FEF759FC02463B69D31A62
:10416000022B01D90323DDE2204B1B6803F002037D
:10417000002BF0D100E000BF7B681B6803F0010357
:10418000002B74D0BB69082B05D0BB690C2B0ED15A
:104190007B69032B0BD1154B1B6803F40033002BF9
:1041A00064D07B685B68002B60D10123BAE27B6836
:1041B0005B68B3F5803F06D10C4B1B680B4A43F498
:1041C0008033136026E07B685B68B3F5A02F15D1C0
:1041D000064B1B68054A43F480231360034B1B689E
:1041E000024A43F48033136014E000BF0010024021
:1041F0004CAB00080000002004000020A04B1B680E
:104200009F4A23F4803313609D4B1B689C4A23F420
:10421000802313607B685B68002B13D0FEF7F6FBEE
:10422000386108E0FEF7F2FB02463B69D31A642BC3
:1042300001D9032376E2924B1B6803F40033002B71
:10424000F0D014E0FEF7E2FB386108E0FEF7DEFB99
:1042500002463B69D31A642B01D9032362E2884BDF
:104260001B6803F40033002BF0D100E000BF7B6833
:104270001B6803F00203002B60D0BB69042B05D040
:10428000BB690C2B19D17B69022B16D17C4B1B68A7
:1042900003F48063002B05D07B68DB68002B01D121
:1042A00001233FE2764B5B6823F0F8527B681B6981
:1042B0001B06734913434B6040E07B68DB68002BAF
:1042C00023D06F4B1B686E4A43F480731360FEF774
:1042D0009DFB386108E0FEF799FB02463B69D31A63
:1042E000022B01D903231DE2654B1B6803F4806395
:1042F000002BF0D0624B5B6823F0F8527B681B699F
:104300001B065F4913434B6018E05D4B1B685C4A1A
:1043100023F480731360FEF779FB386108E0FEF741
:1043200075FB02463B69D31A022B01D90323F9E13D
:10433000534B1B6803F48063002BF0D17B681B6830
:1043400003F00803002B3CD07B685B69002B1CD07A
:104350004B4BD3F894304A4A43F00103C2F89430EF
:10436000FEF754FB386108E0FEF750FB02463B695C
:10437000D31A022B01D90323D4E1414BD3F8943053
:1043800003F00203002BEFD01BE03D4BD3F8943039
:104390003B4A23F00103C2F89430FEF737FB386143
:1043A00008E0FEF733FB02463B69D31A022B01D922
:1043B0000323B7E1324BD3F8943003F00203002B10
:1043C000EFD17B681B6803F00403002B00F0A6808C
:1043D0000023FB772A4B9B6D03F08053002B0DD1FC
:1043E000274B9B6D264A43F080539365244B9B6D6E
:1043F00003F08053BB60BB680123FB77214B1B6834
:1044000003F48073002B18D11E4B1B681D4A43F424
:1044100080731360FEF7FAFA386108E0FEF7F6FAE7
:1044200002463B69D31A022B01D903237AE1154BCB
:104430001B6803F48073002BF0D07B689B68012B12
:1044400008D10F4BD3F890300D4A43F00103C2F866
:10445000903029E07B689B68052B15D1084BD3F879
:104460009030074A43F00403C2F89030044BD3F86D
:104470009030034A43F00103C2F8903014E000BFCB
:1044800000100240007000409C4BD3F890309B4AD3
:1044900023F00103C2F89030984BD3F89030974A3C
:1044A00023F00403C2F890307B689B68002B16D081
:1044B000FEF7ACFA38610AE0FEF7A8FA02463B695B
:1044C000D31A41F28832934201D903232AE18B4B5C
:1044D000D3F8903003F00203002BEDD015E0FEF787
:1044E00095FA38610AE0FEF791FA02463B69D31A61
:1044F00041F28832934201D9032313E17F4BD3F871
:10450000903003F00203002BEDD1FB7F012B05D18E
:104510007A4B9B6D794A23F0805393657B689B6A45
:10452000002B00F0FE807B689B6A022B40F0D0805D
:10453000724BDB687B617B6903F003027B68DB6A9B
:104540009A4230D17B6903F070027B681B6B013BA0
:104550001B019A4227D17B6903F4FE427B685B6BA7
:104560001B029A421FD17B6903F400337A68926B75
:10457000072A14BF01220022D2B2934213D17B69D1
:1045800003F4C0027B68DB6B5B08013B5B059A426E
:1045900009D17B6903F0C0627B681B6C5B08013B3F
:1045A0005B069A426ED0BB690C2B69D0534B1B68DB
:1045B00003F08063002B05D1504B1B6803F0805340
:1045C000002B01D00123ADE04C4B1B684B4A23F07C
:1045D00080731360FEF71AFA386108E0FEF716FAE6
:1045E00002463B69D31A022B01D903239AE0434BBD
:1045F0001B6803F00073002BF0D1404BDA68404B8E
:1046000013407A68D16A7A68126B013A1201114339
:104610007A68526B120211437A68D26B5208013ADF
:10462000520511437A68126C5208013A520611433E
:104630007A68926B120952040A4330491343CB60E3
:104640002E4B1B682D4A43F0807313602B4BDB68A5
:104650002A4A43F08073D360FEF7D8F9386108E046
:10466000FEF7D4F902463B69D31A022B01D9032382
:1046700058E0224B1B6803F00073002BF0D050E091
:1046800001234FE01D4B1B6803F00073002B48D142
:104690001A4B1B68194A43F080731360174BDB6891
:1046A000164A43F08073D360FEF7B0F9386108E032
:1046B000FEF7ACF902463B69D31A022B01D903235A
:1046C00030E00E4B1B6803F00073002BF0D028E0A5
:1046D000BB690C2B23D0094B1B68084A23F080735D
:1046E0001360FEF793F938610CE0FEF78FF902468C
:1046F0003B69D31A022B05D9032313E000100240B3
:104700008C809DF9094B1B6803F00073002BECD1E2
:10471000064BDA680549064B1340CB6001E00123E4
:1047200000E0002318462037BD4680BD001002403F
:10473000FCFFEEFE80B584B000AF786039607B6826
:10474000002B01D10123E7E0754B1B6803F0070341
:104750003A689A4210D9724B1B6823F007027049DD
:104760003B6813430B606E4B1B6803F007033A680A
:104770009A4201D00123CFE07B681B6803F002035B
:10478000002B10D07B689A68664B9B6803F0F0039F
:104790009A4208D9634B9B6823F0F0027B689B68C0
:1047A000604913438B607B681B6803F00103002B97
:1047B0004CD07B685B68032B07D15A4B1B6803F016
:1047C0000073002B21D10123A6E07B685B68022BDC
:1047D00007D1544B1B6803F40033002B15D1012380
:1047E0009AE07B685B68002B07D14E4B1B6803F097
:1047F0000203002B09D101238EE04A4B1B6803F40E
:104800008063002B01D1012386E0464B9B6823F097
:1048100003027B685B68434913438B60FEF7F6F83D
:10482000F8600AE0FEF7F2F80246FB68D31A41F29C
:104830008832934201D903236EE03A4B9B6803F020
:104840000C027B685B689B009A42EBD17B681B681B
:1048500003F00203002B10D07B689A68314B9B68F1
:1048600003F0F0039A4208D22E4B9B6823F0F0022B
:104870007B689B682B4913438B60294B1B6803F0B3
:1048800007033A689A4210D2254B1B6823F00702AF
:1048900023493B6813430B60214B1B6803F007035C
:1048A0003A689A4201D0012336E07B681B6803F026
:1048B0000403002B08D01B4B9B6823F4E0627B6849
:1048C000DB68184913438B607B681B6803F008039F
:1048D000002B09D0134B9B6823F460527B681B6943
:1048E000DB00104913438B6000F024F802460D4BA7
:1048F0009B681B0903F00F030B49CB5C03F01F03FC
:1049000022FA03F3094A1360094B1B681846FEF7A5
:104910002DF80346FB72FB7A18461037BD4680BD62
:1049200000200240001002404CAB000800000020B4
:104930000400002080B489B000AF0023FB61002395
:10494000BB613E4B9B6803F00C033B613B4BDB6858
:1049500003F00303FB603B69002B05D03B690C2B84
:1049600021D1FB68012B1ED1344B1B6803F00803D7
:10497000002B07D1314BD3F894301B0A03F00F03FF
:10498000FB6105E02D4B1B681B0903F00F03FB6166
:104990002B4AFB6952F82330FB613B69002B0DD198
:1049A000FB69BB610AE03B69042B02D1254BBB616B
:1049B00004E03B69082B01D1234BBB613B690C2B05
:1049C00034D11E4BDB6803F00303BB60BB68022BD2
:1049D00003D0BB68032B03D005E01A4B7B6105E0D5
:1049E000194B7B6102E0FB697B6100BF134BDB6805
:1049F0001B0903F0070301337B60104BDB681B0AC4
:104A000003F07F037A6903FB02F27B68B2FBF3F3E6
:104A10007B610A4BDB685B0E03F0030301335B0031
:104A20003B607A693B68B2FBF3F3BB61BB69184634
:104A30002437BD465DF8047B704700BF001002407C
:104A400064AB00080024F40000127A0080B400AFC8
:104A5000034B1B681846BD465DF8047B704700BFDA
:104A60000000002080B500AFFFF7F0FF0246064BC4
:104A70009B681B0A03F007030449CB5C03F01F0388
:104A800022FA03F3184680BD001002405CAB000818
:104A900080B500AFFFF7DAFF0246064B9B68DB0AE2
:104AA00003F007030449CB5C03F01F0322FA03F36E
:104AB000184680BD001002405CAB000880B586B08F
:104AC00000AF786000233B612A4B9B6D03F080535D
:104AD000002B03D0FFF7EEF9786114E0254B9B6DB6
:104AE000244A43F080539365224B9B6D03F080531F
:104AF000FB60FB68FFF7DEF978611E4B9B6D1D4A7A
:104B000023F0805393657B69B3F5007F0BD17B68FD
:104B1000802B19D97B68A02B02D902233B6113E0BB
:104B200001233B6110E07B68802B02D903233B61AA
:104B30000AE07B68802B02D102233B6104E07B68A2
:104B4000702B01D101233B610B4B1B6823F0070243
:104B500009493B6913430B60074B1B6803F00703CC
:104B60003A699A4201D0012300E000231846183721
:104B7000BD4680BD001002400020024080B586B0D6
:104B800000AF78600023FB740023BB747B681B6854
:104B900003F40063002B41D07B685B6EB3F5400FDC
:104BA0002AD0B3F5400F24D8B3F5000F08D0B3F5E1
:104BB000000F1ED8002B0AD0B3F5800F10D018E0DC
:104BC000864BDB68854A43F48033D36015E07B680D
:104BD00004330021184600F0BBFA0346FB740CE0D6
:104BE0007B6820330021184600F0A6FB0346FB74C7
:104BF00003E00123FB7400E000BFFB7C002B0BD122
:104C0000764BD3F8883023F440027B685B6E73499F
:104C10001343C1F8883001E0FB7CBB747B681B68E0
:104C200003F48053002B41D07B689B6EB3F1407F2F
:104C30002AD0B3F1407F24D8B3F1007F08D0B3F17C
:104C4000007F1ED8002B0AD0B3F1807F10D018E06F
:104C5000624BDB68614A43F48033D36015E07B68C4
:104C600004330021184600F073FA0346FB740CE08D
:104C70007B6820330021184600F05EFB0346FB747E
:104C800003E00123FB7400E000BFFB7C002B0BD191
:104C9000524BD3F8883023F040727B689B6E4F49AB
:104CA0001343C1F8883001E0FB7CBB747B681B6850
:104CB00003F40033002B00F0A08000237B74474BEB
:104CC0009B6D03F08053002B01D1012300E00023F2
:104CD000002B0DD0414B9B6D404A43F080539365B0
:104CE0003E4B9B6D03F08053BB60BB6801237B741C
:104CF0003B4B1B683A4A43F480731360FDF786FE12
:104D0000F86009E0FDF782FE0246FB68D31A022B29
:104D100002D90323FB7405E0314B1B6803F4807355
:104D2000002BEFD0FB7C002B5CD12C4BD3F89030C8
:104D300003F440737B617B69002B1FD07B68D3F841
:104D400084307A699A4219D0244BD3F8903023F4F6
:104D500040737B61214BD3F89030204A43F4803379
:104D6000C2F890301D4BD3F890301C4A23F48033A6
:104D7000C2F89030194A7B69C2F890307B6903F021
:104D80000103002B16D0FDF741FEF8600BE0FDF7A4
:104D90003DFE0246FB68D31A41F28832934202D9A3
:104DA0000323FB7406E00D4BD3F8903003F00203AD
:104DB000002BECD0FB7C002B0CD1084BD3F89030AF
:104DC00023F440727B68D3F8843004491343C1F85C
:104DD000903009E0FB7CBB7406E000BF001002408D
:104DE00000700040FB7CBB747B7C012B05D19E4B8B
:104DF0009B6D9D4A23F0805393657B681B6803F08D
:104E00000103002B0AD0984BD3F8883023F003021B
:104E10007B689B6B94491343C1F888307B681B689F
:104E200003F00203002B0AD08F4BD3F8883023F015
:104E30000C027B68DB6B8C491343C1F888307B68BC
:104E40001B6803F00403002B0AD0874BD3F888308B
:104E500023F030027B681B6C83491343C1F8883010
:104E60007B681B6803F00803002B0AD07E4BD3F845
:104E7000883023F0C0027B685B6C7B491343C1F828
:104E800088307B681B6803F01003002B0AD0764B38
:104E9000D3F8883023F440727B689B6C72491343CB
:104EA000C1F888307B681B6803F02003002B0AD010
:104EB0006D4BD3F8883023F440627B68DB6C6A4921
:104EC0001343C1F888307B681B6803F40073002B20
:104ED0000AD0654BD3F8883023F440227B68DB6D21
:104EE00061491343C1F888307B681B6803F4806311
:104EF000002B0AD05C4BD3F8883023F440127B6837
:104F00001B6E59491343C1F888307B681B6803F056
:104F10004003002B0AD0544BD3F8883023F440527E
:104F20007B681B6D50491343C1F888307B681B6850
:104F300003F08003002B0AD04B4BD3F8883023F4C6
:104F400040427B685B6D48491343C1F888307B68F9
:104F50001B6803F48073002B0AD0434BD3F88830CE
:104F600023F440327B689B6D3F491343C1F888307E
:104F70007B681B6803F40053002B28D03A4BD3F80E
:104F8000883023F040627B68DB6E37491343C1F8F9
:104F900088307B68DB6EB3F1006F06D1324BDB6883
:104FA000314A43F48013D36011E07B68DB6EB3F1C8
:104FB000806F0CD17B6804330121184600F0C8F8DB
:104FC0000346FB74FB7C002B01D0FB7CBB747B682D
:104FD0001B6803F40023002B28D0234BD3F8883020
:104FE00023F040627B681B6F1F491343C1F8883070
:104FF0007B681B6FB3F1006F06D11B4BDB681A4A4D
:1050000043F48013D36011E07B681B6FB3F1806FB2
:105010000CD17B6804330121184600F099F803464F
:10502000FB74FB7C002B01D0FB7CBB747B681B6892
:1050300003F48023002B2BD00B4BD3F8883023F0C4
:1050400040627B685B6F08491343C1F888307B6816
:105050005B6FB3F1006F09D1034BDB68024A43F485
:105060008013D36014E000BF001002407B685B6FC8
:10507000B3F1806F0CD17B6804330121184600F036
:1050800067F80346FB74FB7C002B01D0FB7CBB74F0
:105090007B681B6803F48043002B2FD02B4BD3F885
:1050A000883023F040527B689B6F28491343C1F836
:1050B00088307B689B6FB3F1805F0DD17B680433D0
:1050C0000221184600F044F80346FB74FB7C002BD9
:1050D00014D0FB7CBB7411E07B689B6FB3F1005F65
:1050E0000CD17B6820330221184600F025F90346D5
:1050F000FB74FB7C002B01D0FB7CBB747B681B68C2
:1051000003F40043002B0AD0104BD3F8883023F06F
:1051100080427B68DB6F0D491343C1F888307B68A0
:105120001B6803F48033002B0BD0084BD3F8883076
:1051300023F000427B68D3F8803004491343C1F860
:105140008830BB7C18461837BD4680BD0010024031
:1051500080B584B000AF786039600023FB73754B75
:10516000DB6803F00303002B18D0724BDB6803F0FD
:1051700003027B681B689A420DD17B681B68002B79
:1051800009D06C4BDB681B0903F007035A1C7B68D2
:105190005B689A4247D00123FB7344E07B681B683D
:1051A000032B18D0032B25D8012B02D0022B09D0BA
:1051B00020E0604B1B6803F00203002B1DD101238C
:1051C000FB731AE05B4B1B6803F48063002B16D162
:1051D0000123FB7313E0574B1B6803F40033002BD0
:1051E0000FD1544B1B6803F48023002B09D10123FA
:1051F000FB7306E00123FB7304E000BF02E000BF85
:1052000000E000BFFB7B002B0DD14A4BDB6823F095
:1052100073027B6819687B685B68013B1B010B4369
:1052200044491343CB60FB7B002B7DD1414B1B6872
:10523000404A23F080631360FDF7E8FBB86009E0A3
:10524000FDF7E4FB0246BB68D31A022B02D9032305
:10525000FB7305E0374B1B6803F00063002BEFD1B5
:10526000FB7B002B60D13B68002B11D1314B1B69BC
:1052700023F41F3323F440737A68926811027A682A
:10528000D268120952040A432A4913430B6127E0EA
:105290003B68012B12D1274B1B6923F4C00323F475
:1052A000FE437A68926811027A6812695208013ADC
:1052B00052050A431F4913430B6111E01D4B1B6943
:1052C00023F0C06323F4FE437A68926811027A687F
:1052D00052695208013A52060A43164913430B61B8
:1052E000144B1B68134A43F080631360FDF78EFB79
:1052F000B86009E0FDF78AFB0246BB68D31A022BAF
:1053000002D90323FB7305E00A4B1B6803F000631B
:10531000002BEFD0FB7B002B06D1064B1A697B6874
:105320009B69044913430B61FB7B18461037BD464C
:1053300080BD00BF0010024080B584B000AF78602F
:1053400039600023FB736A4BDB6803F00303002B17
:1053500018D0674BDB6803F003027B681B689A4236
:105360000DD17B681B68002B09D0614BDB681B09E2
:1053700003F007035A1C7B685B689A4247D00123FD
:10538000FB7344E07B681B68032B18D0032B25D8E4
:10539000012B02D0022B09D020E0554B1B6803F0F3
:1053A0000203002B1DD10123FB731AE0504B1B6835
:1053B00003F48063002B16D10123FB7313E04C4BE5
:1053C0001B6803F40033002B0FD1494B1B6803F417
:1053D0008023002B09D10123FB7306E00123FB731B
:1053E00004E000BF02E000BF00E000BFFB7B002B39
:1053F0000DD13F4BDB6823F073027B6819687B6833
:105400005B68013B1B010B4339491343CB60FB7BBA
:10541000002B67D1364B1B68354A23F0805313604D
:10542000FDF7F4FAB86009E0FDF7F0FA0246BB6850
:10543000D31A022B02D90323FB7305E02C4B1B6804
:1054400003F00053002BEFD1FB7B002B4AD13B68CC
:10545000002B11D1264B5B6923F41F3323F44073D7
:105460007A68926811027A68D268120952040A4373
:105470001F4913434B6111E01D4B5B6923F0C0636F
:1054800023F4FE437A68926811027A68126952081E
:10549000013A52060A43164913434B61144B1B68E9
:1054A000134A43F080531360FDF7B0FAB86009E087
:1054B000FDF7ACFA0246BB68D31A022B02D90323CC
:1054C000FB7305E00A4B1B6803F00053002BEFD081
:1054D000FB7B002B06D1064B5A697B685B6904494C
:1054E00013434B61FB7B18461037BD4680BD00BFA0
:1054F0000010024080B582B000AF78607B68002B5E
:1055000001D1012340E07B68DB6F002B06D17B6873
:10551000002283F878207868FCF7D0F87B68242292
:10552000DA677B681B681A687B681B6822F00102D7
:105530001A607B685B6A002B02D0786800F074FB0D
:10554000786800F0B9F80346012B01D101231BE074
:105550007B681B685A687B681B6822F490425A601B
:105560007B681B689A687B681B6822F02A029A6035
:105570007B681B681A687B681B6842F001021A602E
:10558000786800F0F3FB034618460837BD4680BD37
:1055900080B58AB002AFF860B9603B601346FB800B
:1055A000FB68DB6F202B40F08180BB68002B02D0B2
:1055B000FB88002B01D1012379E0FB680022C3F8AE
:1055C0008420FB682122DA67FDF720FA7861FB6806
:1055D000FA88A3F85020FB68FA88A3F85220FB68E9
:1055E0009B68B3F5805F08D1FB681B69002B04D171
:1055F0000023FB61BB68BB6103E0BB68FB61002368
:10560000BB6138E03B6800937B6900228021F86829
:1056100000F054FC0346002B04D0FB682022DA671C
:10562000032344E0FB69002B0BD1BB691B881A469E
:10563000FB681B68C2F308029A62BB690233BB6154
:1056400007E0FB691A78FB681B689A62FB69013303
:10565000FB61FB68DB6F03F02103212B09D1FB68A1
:10566000B3F852309BB2013B9AB2FB68A3F85220C8
:1056700001E001231BE0FB68B3F852309BB2002B22
:10568000C0D13B6800937B6900224021F86800F09C
:1056900015FC0346002B04D0FB682022DA670323A5
:1056A00005E0FB682022DA67002300E002231846A9
:1056B0002037BD4680BD00002DE9B04F8AB000AF55
:1056C000F860002387F82230FB689A68FB681B6942
:1056D0001A43FB685B691A43FB68DB6913437B620F
:1056E000FB681B681A68A44B1340FA681268796A51
:1056F0000B431360FB681B685B6823F44051FB6835
:10570000DA68FB681B680A435A60FB689B697B6226
:10571000FB681B68994A934204D0FB681B6A7A6A4B
:1057200013437B62FB681B689B6823F43061FB6852
:105730001B687A6A0A439A60FB681B68904A934226
:1057400026D1904BD3F8883003F00303032B1BD8EA
:1057500001A252F823F000BF6957000879570008EA
:105760007157000881570008012387F8233016E19C
:10577000022387F8233012E1042387F823300EE157
:10578000082387F823300AE1102387F8233006E145
:10579000FB681B687C4A934238D17A4BD3F8883037
:1057A00003F00C030C2B2DD801A252F823F000BFFC
:1057B000E557000805580008055800080558000876
:1057C000F557000805580008055800080558000856
:1057D000ED5700080558000805580008055800084E
:1057E000FD570008002387F82330D8E0022387F80C
:1057F0002330D4E0042387F82330D0E0082387F84F
:105800002330CCE0102387F82330C8E0FB681B6806
:105810005E4A934225D15B4BD3F8883003F03003C6
:10582000302B16D0302B18D8202B0AD0202B14D890
:10583000002B02D0102B08D00FE0002387F8233074
:10584000ADE0022387F82330A9E0042387F8233052
:10585000A5E0082387F82330A1E0102387F8233040
:105860009DE0FB681B684A4A934225D1454BD3F81B
:10587000883003F0C003C02B16D0C02B18D8802B63
:105880000AD0802B14D8002B02D0402B08D00FE078
:10589000002387F8233082E0022387F823307EE05C
:1058A000042387F823307AE0082387F8233076E052
:1058B000102387F8233072E0FB681B68354A934257
:1058C0002AD1304BD3F8883003F44073B3F5407FCE
:1058D0001AD0B3F5407F1BD8B3F5007F0CD0B3F5D9
:1058E000007F15D8002B03D0B3F5807F08D00FE0E0
:1058F000002387F8233052E0022387F823304EE05C
:10590000042387F823304AE0082387F8233046E051
:10591000102387F8233042E0FB681B68174A934244
:105920003AD1184BD3F8883003F44063B3F5406F95
:105930001AD0B3F5406F1BD8B3F5006F0CD0B3F598
:10594000006F15D8002B03D0B3F5806F08D00FE09F
:10595000002387F8233022E0022387F823301EE05B
:10596000042387F823301AE0082387F8233016E051
:10597000102387F8233012E0F369FFEF0080004026
:105980000038014000100240004400400048004040
:10599000004C004000500040102387F82330FB6883
:1059A0001B689F4A93427AD197F82330082B24D85A
:1059B00001A252F823F000BFDD590008FB5900088E
:1059C000E5590008FB590008EB590008FB5900088D
:1059D000FB590008FB590008F3590008FFF742F88B
:1059E000F86110E08F4BFB610DE0FEF7A3FFF8615B
:1059F00009E04FF40043FB6105E00023FB61012354
:105A000087F8223000BFFB69002B00F0FB80FB68A9
:105A10005A6813465B001344FA699A4205D3FB683F
:105A20005B681B03FA699A4203D9012387F8223085
:105A3000E8E0FB6900221C4615464FF000024FF0DB
:105A400000032B0243EA14632202F96849684908FB
:105A500000208846814612EB080A43EB090BFB68DD
:105A60005B6800223B607A60D7E9002350465946C4
:105A7000FBF7EAF802460B461346BB61BB69B3F578
:105A8000407F08D3BB69B3F5801F04D2FB681B6855
:105A9000BA69DA60B6E0012387F82230B2E0FB6829
:105AA000DB69B3F5004F5ED197F82330082B28D877
:105AB00001A252F823F000BFDD5A0008E55A0008A1
:105AC000ED5A0008035B0008F35A0008035B000866
:105AD000035B0008035B0008FB5A0008FEF7C2FFE7
